:100000000C943E000C945E000C9450000C94500034
:100010000C9450000C9450000C9450000C94500020
:100020000C9450000C9450000C9450000C94500010
:100030000C9450000C9450000C9450000C94500000
:100040000C9450000C9450000C9450000C945000F0
:100050000C9450000C9450000C9450000C945000E0
:100060000C9450000C9450000C9450000C945000D0
:100070000C9450000C9450000C94500011241FBE9E
:10008000CFEFD8E0DEBFCDBF21E0A0E0B1E001C0FE
:100090001D92A330B207E1F70E94B9000C94D3007F
:1000A0000C940000F8948FEF84B91AB8E89AE9E646
:1000B000F0E0808183608083789408951F920F928E
:1000C0000FB60F9211248F939F938FE39CE90197B2
:1000D000F1F700C000004A9B05C0809100018F5FCE
:1000E00080930001E09A9F918F910F900FBE0F9027
:1000F0001F90189582E085B98FE19EE40197F1F792
:1001000000C0000081E085B98FE19EE40197F1F71E
:1001100000C000000895811102C00C947A00813063
:1001200011F485B902C08230E1F30895CF93C82F4E
:100130008FE59AEE0197F1F700C000004A9B04C0DA
:100140008C2F0E948B00FACFCF91089580910001EF
:10015000813031F058F0823019F0833021F0089569
:1001600080930201089510920001089510920201F7
:1001700008950E94520010920201C2E08091020193
:10018000813071F028F08230D9F715B882E003C0D1
:1001900081E085B980E00E9496000E94A600EECF23
:0A01A000C5B981E0F8CFF894FFCF55
:00000001FF
