:100000000C943E000C946E000C9450000C94500024
:100010000C9450000C9450000C9450000C94500020
:100020000C9450000C9450000C9450000C94500010
:100030000C9450000C945E000C9450000C945000F2
:100040000C9450000C9450000C9450000C945000F0
:100050000C9450000C9450000C9450000C945000E0
:100060000C9450000C9450000C9450000C945000D0
:100070000C9450000C9450000C94500011241FBE9E
:10008000CFEFD8E0DEBFCDBF21E0A0E0B1E001C0FE
:100090001D92A230B207E1F70E94A1000C94CE009D
:1000A0000C940000F8948FEF84B91AB8E89AE9E646
:1000B000F0E0808183608083789408951F920F928E
:1000C0000FB60F9211248F9381E08093010185B9BF
:1000D0008F910F900FBE0F901F9018951F920F9247
:1000E0000FB60F9211248F939F938FE19EE4019797
:1000F000F1F700C000004A9B03C081E0809300013B
:10010000E09A9F918F910F900FBE0F901F901895BE
:100110001092010110928500109284009093890042
:100120008093880010928000E1E8F0E080818D608B
:10013000808310928200EFE6F0E08081826080830D
:1001400008950E9452002FEF83E294EF21508040E7
:100150009040E1F700C0000081E085B92FEF80E713
:1001600092E0215080409040E1F700C0000015B8B7
:1001700080E49FE10E94880080910101811104C008
:10018000809100018823C1F3F894809100018130AF
:1001900011F482E085B980E090E00895F894FFCFF3
:00000001FF
